{
  "contractName": "Wrapped1155Factory",
  "abi": [
    {
      "inputs": [],
      "stateMutability": "nonpayable",
      "type": "constructor"
    },
    {
      "anonymous": false,
      "inputs": [
        {
          "indexed": true,
          "internalType": "contract IERC1155",
          "name": "multiToken",
          "type": "address"
        },
        {
          "indexed": true,
          "internalType": "uint256",
          "name": "tokenId",
          "type": "uint256"
        },
        {
          "indexed": true,
          "internalType": "contract Wrapped1155",
          "name": "wrappedToken",
          "type": "address"
        }
      ],
      "name": "Wrapped1155Creation",
      "type": "event"
    },
    {
      "inputs": [],
      "name": "erc20Implementation",
      "outputs": [
        {
          "internalType": "contract Wrapped1155",
          "name": "",
          "type": "address"
        }
      ],
      "stateMutability": "view",
      "type": "function"
    },
    {
      "inputs": [
        {
          "internalType": "bytes4",
          "name": "interfaceId",
          "type": "bytes4"
        }
      ],
      "name": "supportsInterface",
      "outputs": [
        {
          "internalType": "bool",
          "name": "",
          "type": "bool"
        }
      ],
      "stateMutability": "view",
      "type": "function"
    },
    {
      "inputs": [
        {
          "internalType": "address",
          "name": "operator",
          "type": "address"
        },
        {
          "internalType": "address",
          "name": "",
          "type": "address"
        },
        {
          "internalType": "uint256",
          "name": "id",
          "type": "uint256"
        },
        {
          "internalType": "uint256",
          "name": "value",
          "type": "uint256"
        },
        {
          "internalType": "bytes",
          "name": "data",
          "type": "bytes"
        }
      ],
      "name": "onERC1155Received",
      "outputs": [
        {
          "internalType": "bytes4",
          "name": "",
          "type": "bytes4"
        }
      ],
      "stateMutability": "nonpayable",
      "type": "function"
    },
    {
      "inputs": [
        {
          "internalType": "address",
          "name": "operator",
          "type": "address"
        },
        {
          "internalType": "address",
          "name": "",
          "type": "address"
        },
        {
          "internalType": "uint256[]",
          "name": "ids",
          "type": "uint256[]"
        },
        {
          "internalType": "uint256[]",
          "name": "values",
          "type": "uint256[]"
        },
        {
          "internalType": "bytes",
          "name": "data",
          "type": "bytes"
        }
      ],
      "name": "onERC1155BatchReceived",
      "outputs": [
        {
          "internalType": "bytes4",
          "name": "",
          "type": "bytes4"
        }
      ],
      "stateMutability": "nonpayable",
      "type": "function"
    },
    {
      "inputs": [
        {
          "internalType": "contract IERC1155",
          "name": "multiToken",
          "type": "address"
        },
        {
          "internalType": "uint256",
          "name": "tokenId",
          "type": "uint256"
        },
        {
          "internalType": "uint256",
          "name": "amount",
          "type": "uint256"
        },
        {
          "internalType": "address",
          "name": "recipient",
          "type": "address"
        },
        {
          "internalType": "bytes",
          "name": "data",
          "type": "bytes"
        }
      ],
      "name": "unwrap",
      "outputs": [],
      "stateMutability": "nonpayable",
      "type": "function"
    },
    {
      "inputs": [
        {
          "internalType": "contract IERC1155",
          "name": "multiToken",
          "type": "address"
        },
        {
          "internalType": "uint256[]",
          "name": "tokenIds",
          "type": "uint256[]"
        },
        {
          "internalType": "uint256[]",
          "name": "amounts",
          "type": "uint256[]"
        },
        {
          "internalType": "address",
          "name": "recipient",
          "type": "address"
        },
        {
          "internalType": "bytes",
          "name": "data",
          "type": "bytes"
        }
      ],
      "name": "batchUnwrap",
      "outputs": [],
      "stateMutability": "nonpayable",
      "type": "function"
    },
    {
      "inputs": [
        {
          "internalType": "contract IERC1155",
          "name": "multiToken",
          "type": "address"
        },
        {
          "internalType": "uint256",
          "name": "tokenId",
          "type": "uint256"
        },
        {
          "internalType": "bytes",
          "name": "data",
          "type": "bytes"
        }
      ],
      "name": "getWrapped1155DeployBytecode",
      "outputs": [
        {
          "internalType": "bytes",
          "name": "",
          "type": "bytes"
        }
      ],
      "stateMutability": "view",
      "type": "function"
    },
    {
      "inputs": [
        {
          "internalType": "contract IERC1155",
          "name": "multiToken",
          "type": "address"
        },
        {
          "internalType": "uint256",
          "name": "tokenId",
          "type": "uint256"
        },
        {
          "internalType": "bytes",
          "name": "data",
          "type": "bytes"
        }
      ],
      "name": "getWrapped1155",
      "outputs": [
        {
          "internalType": "contract Wrapped1155",
          "name": "",
          "type": "address"
        }
      ],
      "stateMutability": "view",
      "type": "function"
    },
    {
      "inputs": [
        {
          "internalType": "contract IERC1155",
          "name": "multiToken",
          "type": "address"
        },
        {
          "internalType": "uint256",
          "name": "tokenId",
          "type": "uint256"
        },
        {
          "internalType": "bytes",
          "name": "data",
          "type": "bytes"
        }
      ],
      "name": "requireWrapped1155",
      "outputs": [
        {
          "internalType": "contract Wrapped1155",
          "name": "",
          "type": "address"
        }
      ],
      "stateMutability": "nonpayable",
      "type": "function"
    }
  ],
  "bytecode": "0x60806040523480156200001157600080fd5b506200002a6301ffc9a760e01b620000bd60201b60201c565b6200004b63bc197c8160e01b63f23a6e6160e01b18620000bd60201b60201c565b6040516200005990620001c6565b604051809103906000f08015801562000076573d6000803e3d6000fd5b50600160006101000a81548173ffffffffffffffffffffffffffffffffffffffff021916908373ffffffffffffffffffffffffffffffffffffffff160217905550620001d4565b63ffffffff60e01b817bffffffffffffffffffffffffffffffffffffffffffffffffffffffff191614156200015a576040517f08c379a000000000000000000000000000000000000000000000000000000000815260040180806020018281038252601c8152602001807f4552433136353a20696e76616c696420696e746572666163652069640000000081525060200191505060405180910390fd5b6001600080837bffffffffffffffffffffffffffffffffffffffffffffffffffffffff19167bffffffffffffffffffffffffffffffffffffffffffffffffffffffff1916815260200190815260200160002060006101000a81548160ff02191690831515021790555050565b6119f28062001a8b83390190565b6118a780620001e46000396000f3fe608060405234801561001057600080fd5b50600436106100935760003560e01c8063901be04111610066578063901be04114610362578063a7eaa18614610396578063bad7b714146104f9578063bc197c8114610615578063f23a6e61146107ab57610093565b806301ffc9a71461009857806308b2ea5e146100fb5780633125810e146101c857806352aecb2414610295575b600080fd5b6100e3600480360360208110156100ae57600080fd5b8101908080357bffffffffffffffffffffffffffffffffffffffffffffffffffffffff191690602001909291905050506108ab565b60405180821515815260200191505060405180910390f35b61019c6004803603606081101561011157600080fd5b81019080803573ffffffffffffffffffffffffffffffffffffffff169060200190929190803590602001909291908035906020019064010000000081111561015857600080fd5b82018360208201111561016a57600080fd5b8035906020019184600183028401116401000000008311171561018c57600080fd5b9091929391929390505050610912565b604051808273ffffffffffffffffffffffffffffffffffffffff16815260200191505060405180910390f35b610269600480360360608110156101de57600080fd5b81019080803573ffffffffffffffffffffffffffffffffffffffff169060200190929190803590602001909291908035906020019064010000000081111561022557600080fd5b82018360208201111561023757600080fd5b8035906020019184600183028401116401000000008311171561025957600080fd5b9091929391929390505050610994565b604051808273ffffffffffffffffffffffffffffffffffffffff16815260200191505060405180910390f35b610360600480360360a08110156102ab57600080fd5b81019080803573ffffffffffffffffffffffffffffffffffffffff1690602001909291908035906020019092919080359060200190929190803573ffffffffffffffffffffffffffffffffffffffff1690602001909291908035906020019064010000000081111561031c57600080fd5b82018360208201111561032e57600080fd5b8035906020019184600183028401116401000000008311171561035057600080fd5b9091929391929390505050610b36565b005b61036a610cb5565b604051808273ffffffffffffffffffffffffffffffffffffffff16815260200191505060405180910390f35b6104f7600480360360a08110156103ac57600080fd5b81019080803573ffffffffffffffffffffffffffffffffffffffff169060200190929190803590602001906401000000008111156103e957600080fd5b8201836020820111156103fb57600080fd5b8035906020019184602083028401116401000000008311171561041d57600080fd5b90919293919293908035906020019064010000000081111561043e57600080fd5b82018360208201111561045057600080fd5b8035906020019184602083028401116401000000008311171561047257600080fd5b9091929391929390803573ffffffffffffffffffffffffffffffffffffffff169060200190929190803590602001906401000000008111156104b357600080fd5b8201836020820111156104c557600080fd5b803590602001918460018302840111640100000000831117156104e757600080fd5b9091929391929390505050610cdb565b005b61059a6004803603606081101561050f57600080fd5b81019080803573ffffffffffffffffffffffffffffffffffffffff169060200190929190803590602001909291908035906020019064010000000081111561055657600080fd5b82018360208201111561056857600080fd5b8035906020019184600183028401116401000000008311171561058a57600080fd5b9091929391929390505050610f58565b6040518080602001828103825283818151815260200191508051906020019080838360005b838110156105da5780820151818401526020810190506105bf565b50505050905090810190601f1680156106075780820380516001836020036101000a031916815260200191505b509250505060405180910390f35b610776600480360360a081101561062b57600080fd5b81019080803573ffffffffffffffffffffffffffffffffffffffff169060200190929190803573ffffffffffffffffffffffffffffffffffffffff1690602001909291908035906020019064010000000081111561068857600080fd5b82018360208201111561069a57600080fd5b803590602001918460208302840111640100000000831117156106bc57600080fd5b9091929391929390803590602001906401000000008111156106dd57600080fd5b8201836020820111156106ef57600080fd5b8035906020019184602083028401116401000000008311171561071157600080fd5b90919293919293908035906020019064010000000081111561073257600080fd5b82018360208201111561074457600080fd5b8035906020019184600183028401116401000000008311171561076657600080fd5b90919293919293905050506115a1565b60405180827bffffffffffffffffffffffffffffffffffffffffffffffffffffffff1916815260200191505060405180910390f35b610876600480360360a08110156107c157600080fd5b81019080803573ffffffffffffffffffffffffffffffffffffffff169060200190929190803573ffffffffffffffffffffffffffffffffffffffff16906020019092919080359060200190929190803590602001909291908035906020019064010000000081111561083257600080fd5b82018360208201111561084457600080fd5b8035906020019184600183028401116401000000008311171561086657600080fd5b90919293919293905050506116da565b60405180827bffffffffffffffffffffffffffffffffffffffffffffffffffffffff1916815260200191505060405180910390f35b6000806000837bffffffffffffffffffffffffffffffffffffffffffffffffffffffff19167bffffffffffffffffffffffffffffffffffffffffffffffffffffffff1916815260200190815260200160002060009054906101000a900460ff169050919050565b600060ff3061048361092688888888610f58565b80519060200120604051602001808560ff1660f81b81526001018473ffffffffffffffffffffffffffffffffffffffff1660601b81526014018381526020018281526020019450505050506040516020818303038152906040528051906020012060001c9050949350505050565b600060606109a486868686610f58565b9050600060ff306104838480519060200120604051602001808560ff1660f81b81526001018473ffffffffffffffffffffffffffffffffffffffff1660601b81526014018381526020018281526020019450505050506040516020818303038152906040528051906020012060001c9050610a348173ffffffffffffffffffffffffffffffffffffffff166117d7565b610b295760006104838351602085016000f590508073ffffffffffffffffffffffffffffffffffffffff168273ffffffffffffffffffffffffffffffffffffffff1614610acc576040517f08c379a000000000000000000000000000000000000000000000000000000000815260040180806020018281038252602481526020018061184e6024913960400191505060405180910390fd5b8173ffffffffffffffffffffffffffffffffffffffff16878973ffffffffffffffffffffffffffffffffffffffff167f5cf3a4006b0dcb221517555192a3e5df5e19783c22ea769c1ef46dd421ae2d3260405160405180910390a4505b8092505050949350505050565b610b4286868484610912565b73ffffffffffffffffffffffffffffffffffffffff16639dc29fac33866040518363ffffffff1660e01b8152600401808373ffffffffffffffffffffffffffffffffffffffff16815260200182815260200192505050600060405180830381600087803b158015610bb257600080fd5b505af1158015610bc6573d6000803e3d6000fd5b505050508573ffffffffffffffffffffffffffffffffffffffff1663f242432a3085888887876040518763ffffffff1660e01b8152600401808773ffffffffffffffffffffffffffffffffffffffff1681526020018673ffffffffffffffffffffffffffffffffffffffff168152602001858152602001848152602001806020018281038252848482818152602001925080828437600081840152601f19601f820116905080830192505050975050505050505050600060405180830381600087803b158015610c9557600080fd5b505af1158015610ca9573d6000803e3d6000fd5b50505050505050505050565b600160009054906101000a900473ffffffffffffffffffffffffffffffffffffffff1681565b848490508787905014610d39576040517f08c379a000000000000000000000000000000000000000000000000000000000815260040180806020018281038252602b815260200180611823602b913960400191505060405180910390fd5b60005b87879050811015610e0c57610d6589898984818110610d5757fe5b905060200201358585610912565b73ffffffffffffffffffffffffffffffffffffffff16639dc29fac33888885818110610d8d57fe5b905060200201356040518363ffffffff1660e01b8152600401808373ffffffffffffffffffffffffffffffffffffffff16815260200182815260200192505050600060405180830381600087803b158015610de757600080fd5b505af1158015610dfb573d6000803e3d6000fd5b505050508080600101915050610d3c565b508773ffffffffffffffffffffffffffffffffffffffff16632eb2c2d630858a8a8a8a89896040518963ffffffff1660e01b8152600401808973ffffffffffffffffffffffffffffffffffffffff1681526020018873ffffffffffffffffffffffffffffffffffffffff16815260200180602001806020018060200184810384528a8a82818152602001925060200280828437600081840152601f19601f8201169050808301925050508481038352888882818152602001925060200280828437600081840152601f19601f8201169050808301925050508481038252868682818152602001925080828437600081840152601f19601f8201169050808301925050509b505050505050505050505050600060405180830381600087803b158015610f3657600080fd5b505af1158015610f4a573d6000803e3d6000fd5b505050505050505050505050565b60606000606080600086866080811015610f7157600080fd5b81019080803573ffffffffffffffffffffffffffffffffffffffff16906020019092919080359060200190640100000000811115610fae57600080fd5b820183602082011115610fc057600080fd5b80359060200191846001830284011164010000000083111715610fe257600080fd5b91908080601f016020809104026020016040519081016040528093929190818152602001838380828437600081840152601f19601f8201169050808301925050505050505091929192908035906020019064010000000081111561104557600080fd5b82018360208201111561105757600080fd5b8035906020019184600183028401116401000000008311171561107957600080fd5b91908080601f016020809104026020016040519081016040528093929190818152602001838380828437600081840152601f19601f820116905080830192505050505050509192919290803560ff169060200190929190505050935093509350935030898985602086600687602c60ab600160009054906101000a900473ffffffffffffffffffffffffffffffffffffffff1660405160200180807f73000000000000000000000000000000000000000000000000000000000000008152506001018c73ffffffffffffffffffffffffffffffffffffffff1660601b8152601401807f3d55000000000000000000000000000000000000000000000000000000000000815250600201807f73000000000000000000000000000000000000000000000000000000000000008152506001018b73ffffffffffffffffffffffffffffffffffffffff1660601b8152601401807f6001550000000000000000000000000000000000000000000000000000000000815250600301807f7f000000000000000000000000000000000000000000000000000000000000008152506001018a8152602001807f6002550000000000000000000000000000000000000000000000000000000000815250600301807f7f0000000000000000000000000000000000000000000000000000000000000081525060010189805190602001908083835b6020831061129e578051825260208201915060208101905060208303925061127b565b6001836020036101000a038019825116818451168082178552505050505050905001886fffffffffffffffffffffffffffffffff1660801b8152601001807f6006550000000000000000000000000000000000000000000000000000000000815250600301807f7f0000000000000000000000000000000000000000000000000000000000000081525060010187805190602001908083835b6020831061135a5780518252602082019150602081019050602083039250611337565b6001836020036101000a038019825116818451168082178552505050505050905001867cffffffffffffffffffffffffffffffffffffffffffffffffffffffffff1660181b8152601d01807f6007550000000000000000000000000000000000000000000000000000000000815250600301807f60000000000000000000000000000000000000000000000000000000000000008152506001018560ff1660f81b8152600101807f6008550000000000000000000000000000000000000000000000000000000000815250600301807f60000000000000000000000000000000000000000000000000000000000000008152506001018460ff1660f81b8152600101807f6040510000000000000000000000000000000000000000000000000000000000815250600301807f8100000000000000000000000000000000000000000000000000000000000000815250600101807f60000000000000000000000000000000000000000000000000000000000000008152506001018360ff1660f81b8152600101807f8239f30000000000000000000000000000000000000000000000000000000000815250600301807f3d3d3d3d363d3d37363d73000000000000000000000000000000000000000000815250600b018273ffffffffffffffffffffffffffffffffffffffff1660601b8152601401807f5af43d3d93803e602a57fd5bf300000000000000000000000000000000000000815250600d019b505050505050505050505050604051602081830303815290604052945050505050949350505050565b600080600084849050116115b557896115ed565b838360208110156115c557600080fd5b81019080803573ffffffffffffffffffffffffffffffffffffffff1690602001909291905050505b905060005b888890508110156116c25761161b338a8a8481811061160d57fe5b905060200201358787610994565b73ffffffffffffffffffffffffffffffffffffffff166340c10f198389898581811061164357fe5b905060200201356040518363ffffffff1660e01b8152600401808373ffffffffffffffffffffffffffffffffffffffff16815260200182815260200192505050600060405180830381600087803b15801561169d57600080fd5b505af11580156116b1573d6000803e3d6000fd5b5050505080806001019150506115f2565b5063bc197c8160e01b91505098975050505050505050565b600080600084849050116116ee5787611726565b838360208110156116fe57600080fd5b81019080803573ffffffffffffffffffffffffffffffffffffffff1690602001909291905050505b9050600061173633888787610994565b90508073ffffffffffffffffffffffffffffffffffffffff166340c10f1983886040518363ffffffff1660e01b8152600401808373ffffffffffffffffffffffffffffffffffffffff16815260200182815260200192505050600060405180830381600087803b1580156117a957600080fd5b505af11580156117bd573d6000803e3d6000fd5b5050505063f23a6e6160e01b925050509695505050505050565b60008060007fc5d2460186f7233c927e7db2dcc703c0e500b653ca82273b7bfad8045d85a47060001b9050833f915080821415801561181957506000801b8214155b9250505091905056fe5772617070656431313535466163746f72793a206d69736d61746368656420696e707574206172726179735772617070656431313535466163746f72793a206661696c656420746f206465706c6f79a2646970667358221220c98bd43991cb31ddad0b2c2e75883c2f76e084ac65d6a9e4911770a322c0601764736f6c634300060c003360806040523480156200001157600080fd5b506040518060400160405280601f81526020017f57726170706564204552432d3131353520496d706c656d656e746174696f6e008152506040518060400160405280600481526020017f574d542a00000000000000000000000000000000000000000000000000000000815250816006908051906020019062000096929190620000d4565b508060079080519060200190620000af929190620000d4565b506012600860006101000a81548160ff021916908360ff16021790555050506200017a565b828054600181600116156101000203166002900490600052602060002090601f016020900481019282601f106200011757805160ff191683800117855562000148565b8280016001018555821562000148579182015b82811115620001475782518255916020019190600101906200012a565b5b5090506200015791906200015b565b5090565b5b80821115620001765760008160009055506001016200015c565b5090565b611868806200018a6000396000f3fe608060405234801561001057600080fd5b50600436106101005760003560e01c806340c10f1911610097578063a457c2d711610066578063a457c2d7146104dc578063a9059cbb14610540578063c45a0155146105a4578063dd62ed3e146105d857610100565b806340c10f191461036557806370a08231146103b357806395d89b411461040b5780639dc29fac1461048e57610100565b80631904e5c9116100d35780631904e5c91461022857806323b872dd1461025c578063313ce567146102e0578063395093511461030157610100565b806306fdde0314610105578063095ea7b31461018857806317d70f7c146101ec57806318160ddd1461020a575b600080fd5b61010d610650565b6040518080602001828103825283818151815260200191508051906020019080838360005b8381101561014d578082015181840152602081019050610132565b50505050905090810190601f16801561017a5780820380516001836020036101000a031916815260200191505b509250505060405180910390f35b6101d46004803603604081101561019e57600080fd5b81019080803573ffffffffffffffffffffffffffffffffffffffff169060200190929190803590602001909291905050506106f2565b60405180821515815260200191505060405180910390f35b6101f4610710565b6040518082815260200191505060405180910390f35b610212610716565b6040518082815260200191505060405180910390f35b610230610720565b604051808273ffffffffffffffffffffffffffffffffffffffff16815260200191505060405180910390f35b6102c86004803603606081101561027257600080fd5b81019080803573ffffffffffffffffffffffffffffffffffffffff169060200190929190803573ffffffffffffffffffffffffffffffffffffffff16906020019092919080359060200190929190505050610746565b60405180821515815260200191505060405180910390f35b6102e861081f565b604051808260ff16815260200191505060405180910390f35b61034d6004803603604081101561031757600080fd5b81019080803573ffffffffffffffffffffffffffffffffffffffff16906020019092919080359060200190929190505050610836565b60405180821515815260200191505060405180910390f35b6103b16004803603604081101561037b57600080fd5b81019080803573ffffffffffffffffffffffffffffffffffffffff169060200190929190803590602001909291905050506108e9565b005b6103f5600480360360208110156103c957600080fd5b81019080803573ffffffffffffffffffffffffffffffffffffffff16906020019092919050505061099b565b6040518082815260200191505060405180910390f35b6104136109e4565b6040518080602001828103825283818151815260200191508051906020019080838360005b83811015610453578082015181840152602081019050610438565b50505050905090810190601f1680156104805780820380516001836020036101000a031916815260200191505b509250505060405180910390f35b6104da600480360360408110156104a457600080fd5b81019080803573ffffffffffffffffffffffffffffffffffffffff16906020019092919080359060200190929190505050610a86565b005b610528600480360360408110156104f257600080fd5b81019080803573ffffffffffffffffffffffffffffffffffffffff16906020019092919080359060200190929190505050610b38565b60405180821515815260200191505060405180910390f35b61058c6004803603604081101561055657600080fd5b81019080803573ffffffffffffffffffffffffffffffffffffffff16906020019092919080359060200190929190505050610c05565b60405180821515815260200191505060405180910390f35b6105ac610c23565b604051808273ffffffffffffffffffffffffffffffffffffffff16815260200191505060405180910390f35b61063a600480360360408110156105ee57600080fd5b81019080803573ffffffffffffffffffffffffffffffffffffffff169060200190929190803573ffffffffffffffffffffffffffffffffffffffff169060200190929190505050610c47565b6040518082815260200191505060405180910390f35b606060068054600181600116156101000203166002900480601f0160208091040260200160405190810160405280929190818152602001828054600181600116156101000203166002900480156106e85780601f106106bd576101008083540402835291602001916106e8565b820191906000526020600020905b8154815290600101906020018083116106cb57829003601f168201915b5050505050905090565b60006107066106ff610cce565b8484610cd6565b6001905092915050565b60025481565b6000600554905090565b600160009054906101000a900473ffffffffffffffffffffffffffffffffffffffff1681565b6000610753848484610ecd565b6108148461075f610cce565b61080f8560405180606001604052806028815260200161174660289139600460008b73ffffffffffffffffffffffffffffffffffffffff1673ffffffffffffffffffffffffffffffffffffffff16815260200190815260200160002060006107c5610cce565b73ffffffffffffffffffffffffffffffffffffffff1673ffffffffffffffffffffffffffffffffffffffff168152602001908152602001600020546111929092919063ffffffff16565b610cd6565b600190509392505050565b6000600860009054906101000a900460ff16905090565b60006108df610843610cce565b846108da8560046000610854610cce565b73ffffffffffffffffffffffffffffffffffffffff1673ffffffffffffffffffffffffffffffffffffffff16815260200190815260200160002060008973ffffffffffffffffffffffffffffffffffffffff1673ffffffffffffffffffffffffffffffffffffffff1681526020019081526020016000205461125290919063ffffffff16565b610cd6565b6001905092915050565b60008054906101000a900473ffffffffffffffffffffffffffffffffffffffff1673ffffffffffffffffffffffffffffffffffffffff163373ffffffffffffffffffffffffffffffffffffffff161461098d576040517f08c379a000000000000000000000000000000000000000000000000000000000815260040180806020018281038252603681526020018061178f6036913960400191505060405180910390fd5b61099782826112da565b5050565b6000600360008373ffffffffffffffffffffffffffffffffffffffff1673ffffffffffffffffffffffffffffffffffffffff168152602001908152602001600020549050919050565b606060078054600181600116156101000203166002900480601f016020809104026020016040519081016040528092919081815260200182805460018160011615610100020316600290048015610a7c5780601f10610a5157610100808354040283529160200191610a7c565b820191906000526020600020905b815481529060010190602001808311610a5f57829003601f168201915b5050505050905090565b60008054906101000a900473ffffffffffffffffffffffffffffffffffffffff1673ffffffffffffffffffffffffffffffffffffffff163373ffffffffffffffffffffffffffffffffffffffff1614610b2a576040517f08c379a000000000000000000000000000000000000000000000000000000000815260040180806020018281038252603681526020018061178f6036913960400191505060405180910390fd5b610b3482826114a3565b5050565b6000610bfb610b45610cce565b84610bf68560405180606001604052806025815260200161180e6025913960046000610b6f610cce565b73ffffffffffffffffffffffffffffffffffffffff1673ffffffffffffffffffffffffffffffffffffffff16815260200190815260200160002060008a73ffffffffffffffffffffffffffffffffffffffff1673ffffffffffffffffffffffffffffffffffffffff168152602001908152602001600020546111929092919063ffffffff16565b610cd6565b6001905092915050565b6000610c19610c12610cce565b8484610ecd565b6001905092915050565b60008054906101000a900473ffffffffffffffffffffffffffffffffffffffff1681565b6000600460008473ffffffffffffffffffffffffffffffffffffffff1673ffffffffffffffffffffffffffffffffffffffff16815260200190815260200160002060008373ffffffffffffffffffffffffffffffffffffffff1673ffffffffffffffffffffffffffffffffffffffff16815260200190815260200160002054905092915050565b600033905090565b600073ffffffffffffffffffffffffffffffffffffffff168373ffffffffffffffffffffffffffffffffffffffff161415610d5c576040517f08c379a00000000000000000000000000000000000000000000000000000000081526004018080602001828103825260248152602001806117ea6024913960400191505060405180910390fd5b600073ffffffffffffffffffffffffffffffffffffffff168273ffffffffffffffffffffffffffffffffffffffff161415610de2576040517f08c379a00000000000000000000000000000000000000000000000000000000081526004018080602001828103825260228152602001806116fe6022913960400191505060405180910390fd5b80600460008573ffffffffffffffffffffffffffffffffffffffff1673ffffffffffffffffffffffffffffffffffffffff16815260200190815260200160002060008473ffffffffffffffffffffffffffffffffffffffff1673ffffffffffffffffffffffffffffffffffffffff168152602001908152602001600020819055508173ffffffffffffffffffffffffffffffffffffffff168373ffffffffffffffffffffffffffffffffffffffff167f8c5be1e5ebec7d5bd14f71427d1e84f3dd0314c0f7b2291e5b200ac8c7c3b925836040518082815260200191505060405180910390a3505050565b600073ffffffffffffffffffffffffffffffffffffffff168373ffffffffffffffffffffffffffffffffffffffff161415610f53576040517f08c379a00000000000000000000000000000000000000000000000000000000081526004018080602001828103825260258152602001806117c56025913960400191505060405180910390fd5b600073ffffffffffffffffffffffffffffffffffffffff168273ffffffffffffffffffffffffffffffffffffffff161415610fd9576040517f08c379a00000000000000000000000000000000000000000000000000000000081526004018080602001828103825260238152602001806116b96023913960400191505060405180910390fd5b610fe4838383611669565b6110508160405180606001604052806026815260200161172060269139600360008773ffffffffffffffffffffffffffffffffffffffff1673ffffffffffffffffffffffffffffffffffffffff168152602001908152602001600020546111929092919063ffffffff16565b600360008573ffffffffffffffffffffffffffffffffffffffff1673ffffffffffffffffffffffffffffffffffffffff168152602001908152602001600020819055506110e581600360008573ffffffffffffffffffffffffffffffffffffffff1673ffffffffffffffffffffffffffffffffffffffff1681526020019081526020016000205461125290919063ffffffff16565b600360008473ffffffffffffffffffffffffffffffffffffffff1673ffffffffffffffffffffffffffffffffffffffff168152602001908152602001600020819055508173ffffffffffffffffffffffffffffffffffffffff168373ffffffffffffffffffffffffffffffffffffffff167fddf252ad1be2c89b69c2b068fc378daa952ba7f163c4a11628f55a4df523b3ef836040518082815260200191505060405180910390a3505050565b600083831115829061123f576040517f08c379a00000000000000000000000000000000000000000000000000000000081526004018080602001828103825283818151815260200191508051906020019080838360005b838110156112045780820151818401526020810190506111e9565b50505050905090810190601f1680156112315780820380516001836020036101000a031916815260200191505b509250505060405180910390fd5b5060008385039050809150509392505050565b6000808284019050838110156112d0576040517f08c379a000000000000000000000000000000000000000000000000000000000815260040180806020018281038252601b8152602001807f536166654d6174683a206164646974696f6e206f766572666c6f77000000000081525060200191505060405180910390fd5b8091505092915050565b600073ffffffffffffffffffffffffffffffffffffffff168273ffffffffffffffffffffffffffffffffffffffff16141561137d576040517f08c379a000000000000000000000000000000000000000000000000000000000815260040180806020018281038252601f8152602001807f45524332303a206d696e7420746f20746865207a65726f20616464726573730081525060200191505060405180910390fd5b61138960008383611669565b61139e8160055461125290919063ffffffff16565b6005819055506113f681600360008573ffffffffffffffffffffffffffffffffffffffff1673ffffffffffffffffffffffffffffffffffffffff1681526020019081526020016000205461125290919063ffffffff16565b600360008473ffffffffffffffffffffffffffffffffffffffff1673ffffffffffffffffffffffffffffffffffffffff168152602001908152602001600020819055508173ffffffffffffffffffffffffffffffffffffffff16600073ffffffffffffffffffffffffffffffffffffffff167fddf252ad1be2c89b69c2b068fc378daa952ba7f163c4a11628f55a4df523b3ef836040518082815260200191505060405180910390a35050565b600073ffffffffffffffffffffffffffffffffffffffff168273ffffffffffffffffffffffffffffffffffffffff161415611529576040517f08c379a000000000000000000000000000000000000000000000000000000000815260040180806020018281038252602181526020018061176e6021913960400191505060405180910390fd5b61153582600083611669565b6115a1816040518060600160405280602281526020016116dc60229139600360008673ffffffffffffffffffffffffffffffffffffffff1673ffffffffffffffffffffffffffffffffffffffff168152602001908152602001600020546111929092919063ffffffff16565b600360008473ffffffffffffffffffffffffffffffffffffffff1673ffffffffffffffffffffffffffffffffffffffff168152602001908152602001600020819055506115f98160055461166e90919063ffffffff16565b600581905550600073ffffffffffffffffffffffffffffffffffffffff168273ffffffffffffffffffffffffffffffffffffffff167fddf252ad1be2c89b69c2b068fc378daa952ba7f163c4a11628f55a4df523b3ef836040518082815260200191505060405180910390a35050565b505050565b60006116b083836040518060400160405280601e81526020017f536166654d6174683a207375627472616374696f6e206f766572666c6f770000815250611192565b90509291505056fe45524332303a207472616e7366657220746f20746865207a65726f206164647265737345524332303a206275726e20616d6f756e7420657863656564732062616c616e636545524332303a20617070726f766520746f20746865207a65726f206164647265737345524332303a207472616e7366657220616d6f756e7420657863656564732062616c616e636545524332303a207472616e7366657220616d6f756e74206578636565647320616c6c6f77616e636545524332303a206275726e2066726f6d20746865207a65726f206164647265737357726170706564313135353a206f6e6c7920666163746f727920616c6c6f77656420746f20706572666f726d206f7065726174696f6e45524332303a207472616e736665722066726f6d20746865207a65726f206164647265737345524332303a20617070726f76652066726f6d20746865207a65726f206164647265737345524332303a2064656372656173656420616c6c6f77616e63652062656c6f77207a65726fa264697066735822122004f4bf673199c5ecf3799af2cd38f42fc15ebc0f8b5ed2dbb288b24d0016568864736f6c634300060c0033",
  "immutableReferences": {},
  "source": "// SPDX-License-Identifier: LGPL-3.0-or-later\n\npragma solidity >=0.6.0;\n\nimport { Address } from \"@openzeppelin/contracts/utils/Address.sol\";\nimport { ERC20 } from \"@openzeppelin/contracts/token/ERC20/ERC20.sol\";\nimport { IERC1155 } from \"@openzeppelin/contracts/token/ERC1155/IERC1155.sol\";\nimport { ERC1155Receiver } from \"@openzeppelin/contracts/token/ERC1155/ERC1155Receiver.sol\";\n\ncontract Wrapped1155Metadata {\n    // workaround which also arranges first storage slots of Wrapped1155\n    Wrapped1155Factory public factory;\n    IERC1155 public multiToken;\n    uint256 public tokenId;\n    \n    modifier onlyFactory() {\n        require(msg.sender == address(factory), \"Wrapped1155: only factory allowed to perform operation\");\n        _;\n    }\n}\n\ncontract Wrapped1155 is Wrapped1155Metadata, ERC20 {\n    constructor() public ERC20(\"Wrapped ERC-1155 Implementation\", \"WMT*\") {}\n\n    function mint(address account, uint256 amount) external onlyFactory {\n        _mint(account, amount);\n    }\n    \n    function burn(address account, uint256 amount) external onlyFactory {\n        _burn(account, amount);\n    }\n}\n\ncontract Wrapped1155Factory is ERC1155Receiver {\n    using Address for address;\n\n    Wrapped1155 public erc20Implementation;\n\n    constructor() public {\n        erc20Implementation = new Wrapped1155();\n    }\n\n    function onERC1155Received(\n        address operator,\n        address /* from */,\n        uint256 id,\n        uint256 value,\n        bytes calldata data\n    )\n        external\n        override\n        returns (bytes4)\n    {\n        address recipient = data.length > 0 ?\n            abi.decode(data, (address)) :\n            operator;\n\n        Wrapped1155 wrapped1155 = requireWrapped1155(IERC1155(msg.sender), id, data);\n        wrapped1155.mint(recipient, value);\n\n        return this.onERC1155Received.selector;\n    }\n\n    function onERC1155BatchReceived(\n        address operator,\n        address /* from */,\n        uint256[] calldata ids,\n        uint256[] calldata values,\n        bytes calldata data\n    )\n        external\n        override\n        returns (bytes4)\n    {\n        address recipient = data.length > 0 ? \n            abi.decode(data, (address)) :\n            operator;\n\n        for (uint i = 0; i < ids.length; i++) {\n            requireWrapped1155(IERC1155(msg.sender), ids[i], data).mint(recipient, values[i]);\n        }\n\n        return this.onERC1155BatchReceived.selector;\n    }\n\n    function unwrap(\n        IERC1155 multiToken,\n        uint256 tokenId,\n        uint256 amount,\n        address recipient,\n        bytes calldata data\n    )\n        external\n    {\n        getWrapped1155(multiToken, tokenId, data).burn(msg.sender, amount);\n        multiToken.safeTransferFrom(address(this), recipient, tokenId, amount, data);\n    }\n\n    function batchUnwrap(\n        IERC1155 multiToken,\n        uint256[] calldata tokenIds,\n        uint256[] calldata amounts,\n        address recipient,\n        bytes calldata data\n    )\n        external\n    {\n        require(tokenIds.length == amounts.length, \"Wrapped1155Factory: mismatched input arrays\");\n        for (uint i = 0; i < tokenIds.length; i++) {\n            getWrapped1155(multiToken, tokenIds[i], data).burn(msg.sender, amounts[i]);\n        }\n        multiToken.safeBatchTransferFrom(address(this), recipient, tokenIds, amounts, data);\n    }\n\n    function getWrapped1155DeployBytecode(IERC1155 multiToken, uint256 tokenId, bytes calldata data)\n        public\n        view\n        returns (bytes memory)\n    {\n\n        ( address recipient, string memory name, string memory symbol, uint8 decimals) = abi.decode(data, (address, string, string, uint8));\n\n        return abi.encodePacked(\n            // assign factory\n            hex\"73\",\n            this,\n            hex\"3d55\",\n            \n            // assign multiToken\n            hex\"73\",\n            multiToken,\n            hex\"600155\",\n            \n            // assign tokenId\n            hex\"7f\",\n            tokenId,\n            hex\"600255\",\n            \n            // assign name\n            hex\"7f\",\n            name, uint128(32),\n            hex\"600655\",\n            \n            // assign symbol\n            hex\"7f\",\n            symbol, uint232(6),\n            hex\"600755\",\n            \n            // assign decimals\n            hex\"60\",\n            decimals,\n            hex\"600855\",\n\n            // push 44 (length of runtime)\n            hex\"60\", uint8(44),\n            // load free memory pointer\n            hex\"604051\",\n\n            // dup runtime length\n            hex\"81\",\n            // push offset in this calldata to runtime object,\n            hex\"60\", uint8(171),\n            // dup free memory pointer\n            hex\"82\"\n            \n            // codecopy runtime to memory and return\n            hex\"39f3\",\n\n            // greetz 0age for More-Minimal Proxy runtime bytecode:\n            hex\"3d3d3d3d363d3d37363d73\",\n            address(erc20Implementation),\n            hex\"5af43d3d93803e602a57fd5bf3\"\n        );\n    }\n    \n    function getWrapped1155(IERC1155 multiToken, uint256 tokenId, bytes calldata data)\n        public\n        view\n        returns (Wrapped1155)\n    {\n        return Wrapped1155(address(uint256(keccak256(abi.encodePacked(\n            uint8(0xff),\n            this,\n            uint256(1155),\n            keccak256(getWrapped1155DeployBytecode(multiToken, tokenId, data))\n        )))));\n    }\n\n    event Wrapped1155Creation(\n        IERC1155 indexed multiToken,\n        uint256 indexed tokenId,\n        Wrapped1155 indexed wrappedToken\n    );\n\n    function requireWrapped1155(IERC1155 multiToken, uint256 tokenId, bytes calldata data)\n        public\n        returns (Wrapped1155)\n    {\n        bytes memory deployBytecode = getWrapped1155DeployBytecode(multiToken, tokenId, data);\n\n        address wrapped1155Address = address(uint256(keccak256(abi.encodePacked(\n            uint8(0xff),\n            this,\n            uint256(1155),\n            keccak256(deployBytecode)\n        ))));\n\n        if (!wrapped1155Address.isContract()) {\n            address addr;\n            assembly {\n              addr := create2(0, add(deployBytecode, 0x20), mload(deployBytecode), 1155)\n            }\n            require(wrapped1155Address == addr, \"Wrapped1155Factory: failed to deploy\");\n\n            emit Wrapped1155Creation(\n                multiToken,\n                tokenId,\n                Wrapped1155(wrapped1155Address)\n            );\n        }\n\n        return Wrapped1155(wrapped1155Address);\n    }\n}\n",
  "sourcePath": "/home/mariano/Proyects/1155-to-20/src/Wrapped1155Factory.sol",
  "compiler": {
    "name": "solc",
    "version": "0.6.12+commit.27d51765.Emscripten.clang"
  },
  "schemaVersion": "3.3.3",
  "updatedAt": "2021-01-27T21:43:41.189Z",
  "devdoc": {
    "kind": "dev",
    "methods": {
      "supportsInterface(bytes4)": {
        "details": "See {IERC165-supportsInterface}. Time complexity O(1), guaranteed to always use less than 30 000 gas."
      }
    },
    "version": 1
  },
  "userdoc": {
    "kind": "user",
    "methods": {},
    "version": 1
  }
}